S0190000626573747572696E677365656E686569642E73726563F3
S11300000C94B5000C94D2000C94D2000C94D20041
S11300100C94D2000C94D2000C94D2000C94D20014
S11300200C94D2000C94D2000C94D2000C945C0179
S11300300C94D2000C94D2000C94D2000C94D200F4
S11300400C94D2000C94D2000C94D2000C94D200E4
S11300500C94D2000C94D2000C94D2000C94D200D4
S11300600C94D2000C94D2006E616E00696E66002E
S113007000407A10F35A00A0724E18090010A5D45B
S1130080E80000E87648170000E40B54020000CAB8
S11300909A3B000000E1F5050000809698000000FE
S11300A040420F000000A08601000000102700005D
S11300B00000E803000000006400000000000A00E3
S11300C0000000000100000000002C76D888DC67E6
S11300D04F0823DFC1DFAE59E1B1B796E5E3E4533E
S11300E0C63AE651997696E8E6C28426EB898C9B5B
S11300F062ED407C6FFCEFBC9C9F40F2BAA56FA5FB
S1130100F490055A2AF75C936B6CF9676DC11BFC7C
S1130110E0E40D47FEF520E6B500D0ED902E030097
S1130120943577050080841E080000204E0A0000E4
S113013000C80C333333330F986E12831141EF8DA3
S11301402114893BE65516CFFEE6DB18D1844B38E3
S11301501BF77C1D901DA4BBE424203284725E2214
S11301608100C9F124ECA1E53D2711241FBECFEF86
S1130170D8E0DEBFCDBF11E0A0E0B1E0E4ECF2E1F5
S113018002C005900D92AC30B107D9F721E0ACE084
S1130190B1E001C01D92A03DB207E1F70E941C022C
S11301A00C9460090C94000080E480937C0087E840
S11301B080937A0008950F931F93CF93DF938C015C
S11301C08091120190911301892B81F0E2E1F1E019
S11301D021E030E0822FE901A781B0852F5F3F4FF6
S11301E03796AB2BB9F78A3021F415C0C0E0D0E0C4
S11301F080E0FE01EE0FFF1FEE0FFF1FEE0FFF1F4B
S1130200EC1BFD0BEE5EFE4F118300837383628350
S1130210558344831682DF91CF911F910F910895E6
S113022027E0829FC0011124FC01EE5EFE4F118283
S113023010821382128215821482168280E008953D
S1130240EF92FF921F93CF93DF93C2E1D1E010E0CE
S11302508E81882379F0E881F981309759F00995E6
S11302608E8181508E838C819D81892B19F4812FFD
S11302700E9410011F5F27961A3051F7DF91CF912A
S11302801F91FF90EF900895CF93C0E08C2F0E94B0
S11302901001CF5FCA30D1F781E792E090938900D3
S11302A0809388008CE08093810082E080936F00CB
S11302B0CF910895789408951F920F920FB60F92DC
S11302C011242F933F938F939F93AF93BF93EF93F7
S11302D0FF93E2E1F1E028E531E080819181892B0F
S11302E091F082819381009759F486818F5F868390
S11302F084819581009739F001979383828303C0A9
S11303000197938382833796E217F30731F7FF91BE
S1130310EF91BF91AF919F918F913F912F910F904A
S11303200FBE0F901F9018950E94D40008956091FD
S11303300E0170910F0180911001909111010895A7
S113034080910C0190910D014E9721F410920D01B2
S113035010920C0180910C0190910D01FC01EE0FA3
S1130360FF1FEE0FFF1FE85AFE4F40910E01509100
S11303700F016091100170911101408351836283D8
S11303807383019690930D0180930C0108950F934C
S11303901F93CF93DF93C8E5D1E000ED11E060E057
S11303A070E0CB0129913991499159910E949D02A4
S11303B0C017D107B9F720E030E040EF51E40E94C4
S11303C0090360930E0170930F01809310019093C1
S11303D01101DF91CF911F910F910895CF93DF9376
S11303E0CDB7DEB7CE56D1090FB6F894DEBF0FBE37
S11303F0CDBF1B821C821D821E820E9497010E9417
S11304007B037A8369831F82188619861A86BE0144
S1130410655F7F4FCE0101960E944102CE010B968B
S11304200E948A02C259DF4F0FB6F894DEBF0FBE96
S1130430CDBFDF91CF9108950E9474020E9499026A
S11304400E9494010E94440144E650E060E070E0A0
S113045080EA91E00E94DB0048EB5BE068EB7BE024
S113046087EC91E00E94DB0040E757E160E777E129
S11304708EEE91E00E94DB000E945A010E9420014E
S1130480FDCF009759F16115710559F1FC01818582
S11304908F9380858F9387818F9386818F938581B6
S11304A08F9384818F9383818F9382818F938181B2
S11304B08F9380818F9380E091E09F938F937F93BC
S11304C06F930E94E0088DB79EB70E960FB6F8940E
S11304D09EBF0FBE8DBF81E090E0089580E090E064
S11304E0089580E090E008951092C50083E380931E
S11304F0C4001092C00088E18093C10086E080931C
S1130500C2000895E0ECF0E0908195FFFDCF809368
S1130510C6000895CF93DF93EC018881882331F0DE
S113052021960E94820289918111FBCFDF91CF91A4
S113053008950E94D40008955058BB27AA270E940A
S1130540B4020C94C8030E94BA0338F00E94C10399
S113055020F039F49F3F19F426F40C94B7030EF4F9
S1130560E095E7FB0C94B103E92F0E94D90358F3FB
S1130570BA17620773078407950720F079F4A6F584
S11305800C94FB030EF4E0950B2EBA2FA02D0B0157
S1130590B90190010C01CA01A0011124FF27591BC4
S11305A099F0593F50F4503E68F11A16F040A22FCA
S11305B0232F342F4427585FF3CF4695379527953B
S11305C0A795F0405395C9F77EF41F16BA0B620B3A
S11305D0730B840BBAF09150A1F0FF0FBB1F661F81
S11305E0771F881FC2F70EC0BA0F621F731F841FC4
S11305F048F4879577956795B795F7959E3F08F0EA
S1130600B0CF9395880F08F09927EE0F97958795AB
S113061008950E941D030C94C8030E94C10358F05E
S11306200E94BA0340F029F45F3F29F00C94B1030F
S113063051110C94FC030C94B7030E94D90368F382
S11306409923B1F3552391F3951B550BBB27AA2787
S113065062177307840738F09F5F5F4F220F331FC1
S1130660441FAA1FA9F335D00E2E3AF0E0E832D089
S113067091505040E695001CCAF72BD0FE2F29D08C
S1130680660F771F881FBB1F261737074807AB075E
S1130690B0E809F0BB0B802DBF01FF2793585F4FD3
S11306A03AF09E3F510578F00C94B1030C94FC038E
S11306B05F3FE4F3983ED4F3869577956795B795B5
S11306C0F7959F5FC9F7880F911D9695879597F9C0
S11306D00895E1E0660F771F881FBB1F6217730739
S11306E08407BA0720F0621B730B840BBA0BEE1F4E
S11306F088F7E09508950E9482036894B1110C94E0
S1130700FC0308950E94E10388F09F5798F0B92FE5
S11307109927B751B0F0E1F0660F771F881F991F32
S11307201AF0BA95C9F714C0B13091F00E94FB03D6
S1130730B1E008950C94FB03672F782F8827B85FE6
S113074039F0B93FCCF3869577956795B395D9F78A
S11307503EF490958095709561957F4F8F4F9F4F94
S1130760089597F99F6780E870E060E008959FEF2F
S113077080EC089500240A94161617061806090634
S1130780089500240A941216130614060506089503
S1130790092E0394000C11F4882352F0BB0F40F48B
S11307A0BF2B11F460FF04C06F5F7F4F8F4F9F4FCB
S11307B0089557FD9058440F551F59F05F3F71F04D
S11307C04795880F97FB991F61F09F3F79F08795B4
S11307D00895121613061406551FF2CF4695F1DF3D
S11307E008C0161617061806991FF1CF86957105CD
S11307F0610508940895E894BB2766277727CB0101
S113080097F90895A0E1B0E0E8E0F4E00C947F07E4
S11308107C011B016A01FC0117821682838181FF1E
S113082044C39E012F5F3F4F3901F7019381F101CA
S113083093FD859193FF81911F01882309F431C3AE
S1130840853239F493FD859193FF81911F0185329F
S113085039F4B70190E00E94A40856016501E5CF80
S113086010E0512C912CFFE1F915D8F08B3279F07E
S113087038F4803279F08332A1F4F92DF0612EC07E
S11308808D3261F0803369F4292D21602DC0392D1A
S11308903260932E892D8460982E2AC0E92DE86059
S11308A015C097FC2DC020ED280F2A3088F496FE41
S11308B006C03AE0139F200D1124122F19C08AE0BC
S11308C0589E200D1124522EE92DE0629E2E10C058
S11308D08E3231F496FCE5C2F92DF0649F2E08C0E7
S11308E08C3621F4292D2068922E02C0883641F4DA
S11308F0F10193FD859193FF81911F018111B3CF84
S11309009BEB980F933020F4992D9061805E07C083
S11309109BE9980F933008F066C1992D9F7E96FF4E
S113092016E09F73992E853619F49064992E08C0A9
S1130930863621F4392F3068932E02C011111150DC
S113094097FE07C01C3350F444244394410E27E01F
S11309500BC0183038F027E017E005C027E09CE30F
S1130960492E02C0212F412C560184E0A80EB11C4F
S1130970F6016081718182819381042DA3010E941B
S1130980B6076C01F981FC87F0FF02C0F3FF06C0D3
S113099091FC06C092FE06C000E205C00DE203C051
S11309A00BE201C000E08C858C7019F001115AC271
S11309B09BC297FE10C04C0CFC85F4FF04C08A81D6
S11309C0813309F44A94141474F528E0241578F555
S11309D088E0482E2CC096FC2AC0812F90E08C150C
S11309E09D059CF03CEFC3163FEFD30674F0892DB0
S11309F08068982E0AC0E2E0F0E0EC0FFD1FE10FE2
S1130A00F11D8081803319F411501111F4CF97FE38
S1130A100EC044244394410E812F90E0C816D90699
S1130A202CF41C1904C04424439401C010E097FE24
S1130A3006C01C141D0434F4C601019605C085E0EB
S1130A4090E002C081E090E001110196112331F0A1
S1130A50212F30E02F5F3F4F820F931F252D30E071
S1130A608217930714F4581A01C0512C892D8970E8
S1130A7049F4552039F0B70180E290E00E94A408BF
S1130A805A94F7CF002329F0B701802F90E00E94F9
S1130A90A40893FC09C0552039F0B70180E390E025
S1130AA00E94A4085A94F7CF97FE4CC04601D7FE83
S1130AB002C0812C912CC60188199909F301E80F11
S1130AC0F91FFE87ED87960124193109388B2F878A
S1130AD0012F10E01195019511093FEF831693063C
S1130AE029F4B7018EE290E00E94A408C814D90446
S1130AF04CF08F8598898815990524F4ED85FE8539
S1130B00818101C080E3F1E08F1A91082D853E8533
S1130B102F5F3F4F3E872D87801691062CF0B7013B
S1130B2090E00E94A408D9CFC814D90441F49A8152
S1130B30963320F4953319F43C8534FF81E3B701EF
S1130B4090E04EC08A81813319F09C859F7E9C87FA
S1130B50B70190E00E94A408111105C094FC18C0CC
S1130B6085E690E017C0B7018EE290E00E94A408E9
S1130B701E5F82E001E0080FF301E80FF11D8081A0
S1130B80B70190E00E94A408802F0113F3CFE6CFB1
S1130B9085E490E0B7010E94A408D7FC06C0C11404
S1130BA0D10441F4EC85E4FF05C0D194C194D1088B
S1130BB08DE201C08BE2B70190E00E94A40880E3BB
S1130BC02AE0C216D1042CF08F5FFAE0CF1AD108C4
S1130BD0F7CFB70190E00E94A408B701C601C09600
S1130BE00E94A40854C1833631F0833779F08335E9
S1130BF009F056C020C0560132E0A30EB11CF60124
S1130C008081898301E010E0630112C05601F2E0A3
S1130C10AF0EB11CF601C080D18096FE03C0612FD7
S1130C2070E002C06FEF7FEFC6010E9499088C014B
S1130C30F92DFF7714C0560122E0A20EB11CF60173
S1130C40C080D18096FE03C0612F70E002C06FEFB8
S1130C507FEFC6010E948E088C01F92DF0689F2E4B
S1130C60F3FD1AC0852D90E008171907A8F4B70101
S1130C7080E290E00E94A4085A94F4CFF60197FC15
S1130C80859197FE81916F01B70190E00E94A408BD
S1130C9051105A94015011090115110579F7F7C043
S1130CA0843611F0893661F5560197FE09C024E0B7
S1130CB0A20EB11CF60160817181828193810AC008
S1130CC0F2E0AF0EB11CF60160817181072E000CB9
S1130CD0880B990BF92DFF769F2E97FF09C09095ED
S1130CE08095709561957F4F8F4F9F4FF0689F2E31
S1130CF02AE030E0A3010E940209C82EC6183FC0B2
S1130D00092D853721F40F7E2AE030E01DC0097FCC
S1130D108F3691F018F4883559F0C3C0803719F034
S1130D20883711F0BEC0006104FF09C0046007C029
S1130D3094FE08C0066006C028E030E005C020E14B
S1130D4030E002C020E132E0560107FF09C084E030
S1130D50A80EB11CF601608171818281938108C063
S1130D60F2E0AF0EB11CF6016081718180E090E089
S1130D70A3010E940209C82EC6180F77902E96FE72
S1130D800BC0092D0E7FC11650F494FE0AC092FCCC
S1130D9008C0092D0E7E05C0DC2C092D03C0DC2CF7
S1130DA001C0D12E04FF0DC0FE01EC0DF11D8081A8
S1130DB0803311F4097E09C002FF06C0D394D39492
S1130DC004C0802F867809F0D39403FD11C000FF7E
S1130DD006C01C2DD51480F4150D1D190DC0D51495
S1130DE058F4B70180E290E00E94A408D394F7CFAE
S1130DF0D51410F45D1801C0512C04FF10C0B701C4
S1130E0080E390E00E94A40802FF17C001FD03C024
S1130E1088E790E002C088E590E0B7010CC0802F1D
S1130E20867859F001FF02C08BE201C080E207FD21
S1130E308DE2B70190E00E94A408C11638F4B7010E
S1130E4080E390E00E94A4081150F7CFCA94F30104
S1130E50EC0DF11D8081B70190E00E94A408C1103F
S1130E60F5CF15C0F4E0F51560F584E0581A93FE4B
S1130E701FC0011127C02C8523FF2AC008E610E0FB
S1130E80392D3071932EF8018491811124C055209D
S1130E9009F4E4CCB70180E290E00E94A4085A94DB
S1130EA0F6CFF7018681978126C08FEF9FEF23C08D
S1130EB0B70180E290E00E94A4085A945110F8CF40
S1130EC0D8CF512CB701802F90E00E94A408D3CF33
S1130ED00CE610E0D5CF91108052B70190E00E944B
S1130EE0A4080F5F1F4FCFCF23E0251510F483E034
S1130EF0BDCF512CC0CF6096E2E10C949B072F929A
S1130F003F924F925F926F927F928F929F92AF9295
S1130F10BF92CF92DF92EF92FF920F931F93CF93E2
S1130F20DF93CDB7DEB7CA1BDB0B0FB6F894DEBF79
S1130F300FBECDBF09942A88398848885F846E849F
S1130F407D848C849B84AA84B984C884DF80EE80E9
S1130F50FD800C811B81AA81B981CE0FD11D0FB6F2
S1130F60F894DEBF0FBECDBFED010895283008F020
S1130F7027E03327DA01990F311D87FD9160009630
S1130F806105710539F432602E5F3D9330E32A9593
S1130F90E1F708959F3F30F080387105610509F04D
S1130FA03C5F3C5F3D93913008F08068911DDF9376
S1130FB0CF931F930F93FF92EF92192F987F9695DB
S1130FC0E92F96959695E90FFF27E653FF4F99274A
S1130FD03327EE24FF24A701E70105900894079422
S1130FE028F4360FE71EF81E491F511D660F771FA0
S1130FF0881F991F0694A1F70590079428F4E70E1B
S1131000F81E491F561FC11D770F881F991F661FA1
S11310100694A1F70590079428F4F80E491F561F6B
S1131020C71FD11D880F991F661F771F0694A1F74C
S11310300590079420F4490F561FC71FD81F990F16
S1131040661F771F881F0694A9F78491109517705F
S113105041F0D695C79557954795F794E7941A9517
S1131060C1F7E0E7F0E0689415901591359165912A
S1131070959105907FE27395E118F10A430B560BA5
S1131080C90BD009C0F7E10CF11E431F561FC91F3D
S1131090D01D7EF4703311F48A95E6CFE8940150A4
S11310A030F0080F0AF40027021708F4202F2395C4
S11310B0022F7A3328F079E37D932A95E9F710C05B
S11310C07D932A9589F60694979567953795179594
S11310D01794E118F10A430B560BC90BD00998F089
S11310E023957E9173957A3308F070E37C932013F3
S11310F0B8F77E9170617D9330F0839571E37D93B1
S113110070E32A95E1F71124EF90FF900F911F915E
S1131110CF91DF91992787FD90950895FC01059063
S1131120615070400110D8F7809590958E0F9F1FE5
S11311300895FC016150704001900110D8F780952A
S113114090958E0F9F1F08950F931F93CF93DF9356
S1131150FB01238121FD03C08FEF9FEF2CC022FFF1
S113116016C046815781248135814217530744F4C0
S1131170A081B1819D012F5F3F4F318320838C93E8
S1131180268137812F5F3F4F3783268314C08B011D
S1131190EC01FB010084F185E02D0995892BE1F632
S11311A0D80116968D919C911797019617969C934A
S11311B08E931697CE01DF91CF911F910F910895D1
S11311C0AEE0B0E0E6EEF8E00C948D070D891E89E0
S11311D086E08C831A8309838FEF9FE79E838D8338
S11311E0AE01475E5F4F6F89788DCE0101960E94F4
S11311F00204EF81F885E00FF11F10822E96E4E0DF
S11312000C94A907FA01AA27283051F1203181F161
S1131210E8946F936E7F6E5F7F4F8F4F9F4FAF4FFA
S1131220B1E03ED0B4E03CD0670F781F891F9A1F0D
S1131230A11D680F791F8A1F911DA11D6A0F711DC1
S1131240811D911DA11D20D009F468943F912AE0CD
S1131250269F11243019305D3193DEF6CF010895B5
S1131260462F4770405D4193B3E00FD0C9F7F6CFE6
S1131270462F4F70405D4A3318F0495D31FD4052AE
S1131280419302D0A9F7EACFB4E0A6959795879544
S113129077956795BA95C9F7009761057105089523
S11312A09B01AC010A2E06945795479537952795CF
S11312B0BA95C9F7620F731F841F951FA01D089567
S10712C0F894FFCFCC
S10F12C4313A25643A25663A25660A0092
S9030000FC
