S0190000626573747572696E677365656E686569642E73726563F3
S11300000C9406010C9423010C9423010C942301F9
S11300100C9423010C9423010C9423010C942301CC
S11300200C9423010C9423010C9423010C94BE0121
S11300300C9423010C9423010C9423010C942301AC
S11300400C9423010C9423010C9423010C9423019C
S11300500C9423010C9423010C9423010C9423018C
S11300600C9423010C942301B002BB02C602CD02FE
S1130070D402DA02F802160331034C036503750354
S113008075036E616E00696E660000407A10F35A63
S113009000A0724E18090010A5D4E80000E87648C4
S11300A0170000E40B54020000CA9A3B000000E170
S11300B0F505000080969800000040420F00000003
S11300C0A08601000000102700000000E8030000E3
S11300D000006400000000000A00000000000100AD
S11300E0000000002C76D888DC674F0823DFC1DFCE
S11300F0AE59E1B1B796E5E3E453C63AE6519976D1
S113010096E8E6C28426EB898C9B62ED407C6FFC0A
S1130110EFBC9C9F40F2BAA56FA5F490055A2AF74C
S11301205C936B6CF9676DC11BFCE0E40D47FEF555
S113013020E6B500D0ED902E0300943577050080BD
S1130140841E080000204E0A000000C80C3333331C
S1130150330F986E12831141EF8D2114893BE655BC
S113016016CFFEE6DB18D1844B381BF77C1D901D9F
S1130170A4BBE424203284725E228100C9F124EC01
S1130180A1E53D274E414E494E495459494E46CD6D
S1130190CCCC3D0AD7233C17B7D13877CC2B32953A
S11301A095E6241FB14F0A000020410000C8420018
S11301B0401C4620BCBE4CCA1B0E5AAEC59D74637F
S11301C064696E6F70737578585B656667454647FA
S11301D000616E006E66696E69747900CDCCCC3DA9
S11301E00AD7233C17B7D13877CC2B329595E62420
S11301F01FB14F0A000020410000C84200401C46C5
S113020020BCBE4CCA1B0E5AAEC59D7411241FBE21
S1130210CFEFD8E0DEBFCDBF11E0A0E0B1E0E0E970
S1130220F5E202C005900D92AA36B107D9F722E093
S1130230AAE6B1E001C01D92A03CB207E1F70E941A
S11302402D020C94C6120C94000080E480937C0070
S113025087E880937A0008958F70806480937C008F
S1130260EAE7F0E0808180648083808186FDFDCFB1
S1130270809178009091790008950F931F93CF9304
S1130280DF938C018091740190917501892B81F029
S1130290E4E7F1E021E030E0822FE901A781B085B5
S11302A02F5F3F4F3796AB2BB9F78A3021F415C037
S11302B0C0E0D0E080E0FE01EE0FFF1FEE0FFF1F55
S11302C0EE0FFF1FEC1BFD0BEC58FE4F1183008358
S11302D073836283558344831682DF91CF911F9188
S11302E00F91089527E0829FC0011124FC01EC586E
S11302F0FE4F11821082138212821582148216829A
S113030080E00895EF92FF921F93CF93DF93C4E7A9
S1130310D1E010E08E81882379F0E881F98130976B
S113032059F009958E8181508E838C819D81892B12
S113033019F4812F0E9472011F5F27961A3051F71A
S1130340DF91CF911F91FF90EF900895CF93C0E07C
S11303508C2F0E947201CF5FCA30D1F781E792E0FF
S113036090938900809388008CE08093810082E0E0
S113037080936F00CF910895789408951F920F92FF
S11303800FB60F9211242F933F938F939F93AF93A4
S1130390BF93EF93FF93E4E7F1E02AEB31E0808130
S11303A09181892B91F082819381009759F4868100
S11303B08F5F868384819581009739F001979383B9
S11303C0828303C00197938382833796E217F307EE
S11303D031F7FF91EF91BF91AF919F918F913F9131
S11303E02F910F900FBE0F901F901895F999FECF83
S11303F041E450E060E070E080E091E00E948A1205
S11304000895F999FECF41E450E060E070E080E0A7
S113041091E00E947A120895CF93DF93CDB7DEB7AF
S1130420C456D1090FB6F894DEBF0FBECDBF0E94EB
S11304304304892B41F0CE0101960E944804CE0169
S113044001960E948303CC59DF4F0FB6F894DEBFA8
S11304500FBECDBFDF91CF9108950E94EE030E949D
S113046062040E940102529A0E94A60144E650E0EE
S113047060E070E080E994E00E943D0140EA5FE0C2
S113048060EA7FE088EB94E00E943D0140E757E199
S113049060E777E182EC93E00E943D0141E050E0A7
S11304A060E070E083E194E00E943D0141E050E0AF
S11304B060E070E08CE092E00E943D010E94BC018B
S11304C00E948201FDCF009759F16115710559F120
S11304D0FC0181858F9380858F9387818F9386819B
S11304E08F9385818F9384818F9383818F9382816E
S11304F08F9381818F9380818F9381E491E09F9387
S11305008F937F936F930E9436108DB79EB70E968C
S11305100FB6F8949EBF0FBE8DBF81E090E00895A2
S113052080E090E0089580E090E008950F931F9399
S1130530CF93DF93CDB7DEB7C456D1090FB6F89485
S1130540DEBF0FBECDBF9B01482F50E04D3051059B
S113055008F0CDC0C901FA01EC5CFF4F0C94440EC5
S11305600E94810E609337017093380180933901A2
S113057090933A01BAC00E94810E60933B0170933C
S11305803C0180933D0190933E01AFC00E94850ED3
S11305909093340180933301A8C00E94850E9093F8
S11305A0360180933501A1C0B90180E091E00E9439
S11305B0A20F9BC0E0E0F1E082AD8F9381AD8F93F9
S11305C080AD8F9387A98F938EE491E09F938F934F
S11305D08E010F5F1F4F1F930F930E943610C801A7
S11305E00E9404040FB6F894DEBF0FBECDBF7DC0D9
S11305F0E0E0F1E086AD8F9385AD8F9384AD8F936A
S113060083AD8F938EE491E09F938F938E010F5F60
S11306101F4F1F930F930E943610C8010E940404B9
S11306200FB6F894DEBF0FBECDBF5FC0E0E0F1E0CF
S113063084A98F9383A98F9385E591E09F938F93EA
S11306408E010F5F1F4F1F930F930E943610C80136
S11306500E9404040F900F900F900F900F900F9032
S113066044C0E0E0F1E086A98F9385A98F9385E5E6
S113067091E09F938F938E010F5F1F4F1F930F93F2
S11306800E943610C8010E9404040F900F900F902E
S11306900F900F900F9029C080E091E09F938F936B
S11306A08CE591E09F938F938E010F5F1F4F1F93F3
S11306B00F930E943610C8010E9404040F900F90FB
S11306C00F900F900F900F9010C09BB184E089277A
S11306D08BB9EFE3F1E081E090E020813181232BBD
S11306E011F080E090E0918380830E94F601CC5960
S11306F0DF4F0FB6F894DEBF0FBECDBFDF91CF91B1
S11307001F910F9108950F931F93CF93DF93CDB74C
S1130710DEB7C656D1090FB6F894DEBF0FBECDBF03
S11307202FEF3FEF3A8329830097F1F08E010D5F9D
S11307301F4F1F930F939E012F5F3F4F3F932F93A4
S113074023E631E03F932F939F938F930E94581099
S1130750B80189810E9496020FB6F894DEBF0FBEDD
S1130760CDBF81E090E002C080E090E0CA59DF4F45
S11307700FB6F894DEBF0FBECDBFDF91CF911F91AE
S11307800F910895CF93DF93CDB7DEB7CE56D1093D
S11307900FB6F894DEBF0FBECDBF0E9487046B83F3
S11307A07C838D839E831A8219821F821886198600
S11307B01A86BE01655F7F4FCE0101960E946302D7
S11307C0CE010B960E940404C259DF4F0FB6F89471
S11307D0DEBF0FBECDBFDF91CF9108951092C5004B
S11307E083E38093C4001092C00088E18093C10029
S11307F086E08093C2000895E0ECF0E0908195FFDC
S1130800FDCF8093C6000895CF93DF93EC018881D8
S1130810882331F021960E94FC0389918111FBCF3A
S1130820DF91CF9108958091C00088235CF52091D9
S1130830C60080916A0190916B018436910514F58C
S113084040916C0150916D01452BE1F42A3079F40B
S1130850FC01E654FE4F108210926B0110926A0163
S113086081E090E090936D0180936C010895AC0158
S11308704F5F5F4F50936B0140936A01FC01E65454
S1130880FE4F2083089580916C0190916D0108952D
S113089020916C0130916D01232B99F024E6EAEB51
S11308A0F1E0DC0101900D922A95E1F784E6EAEB90
S11308B0F1E0DF011D928A95E9F710926D01109223
S11308C06C0108950E942501089581E00E942C0185
S11308D0BC01990F880B990B0E94C00520E030E001
S11308E040EA50E40E944C0620E030E040E85AE33D
S11308F00E944C0620E030E040E05FE30E94DF0409
S113090020E030E048EC52E40E944C0608956091E7
S11309107001709171018091720190917301089539
S1130920CF93DF9380916E0190916F01889721F4AA
S113093010926F0110926E01C0916E01D0916F01FF
S11309400E946504CC0FDD1FCC0FDD1FC25EDD4F9E
S1130950688379838A839B8380916E0190916F0170
S1130960019690936F0180936E01DF91CF9108956A
S11309700F931F93CF93DF93CEE1D2E00EEB12E0FF
S113098060E070E0CB0129913991499159910E941D
S1130990E004C017D107B9F720E030E040E252E4A8
S11309A00E944C05609370017093710180937201F1
S11309B090937301DF91CF911F910F910895505837
S11309C0BB27AA270E94F7040C9412060E9404066F
S11309D038F00E940B0620F039F49F3F19F426F4F6
S11309E00C9401060EF4E095E7FB0C94FB05E92F4B
S11309F00E94230658F3BA17620773078407950702
S1130A0020F079F4A6F50C9445060EF4E0950B2E2F
S1130A10BA2FA02D0B01B90190010C01CA01A0014C
S1130A201124FF27591B99F0593F50F4503E68F1A7
S1130A301A16F040A22F232F342F4427585FF3CFE8
S1130A40469537952795A795F0405395C9F77EF4B9
S1130A501F16BA0B620B730B840BBAF09150A1F002
S1130A60FF0FBB1F661F771F881FC2F70EC0BA0F88
S1130A70621F731F841F48F4879577956795B79510
S1130A80F7959E3F08F0B0CF9395880F08F099270B
S1130A90EE0F9795879508950E9460050C941206B1
S1130AA00E940B0658F00E94040640F029F45F3FB0
S1130AB029F00C94FB0551110C9446060C94010684
S1130AC00E94230668F39923B1F3552391F3951BF0
S1130AD0550BBB27AA2762177307840738F09F5F5B
S1130AE05F4F220F331F441FAA1FA9F335D00E2EC8
S1130AF03AF0E0E832D091505040E695001CCAF735
S1130B002BD0FE2F29D0660F771F881FBB1F2617F7
S1130B1037074807AB07B0E809F0BB0B802DBF01CE
S1130B20FF2793585F4F3AF09E3F510578F00C949D
S1130B30FB050C9446065F3FE4F3983ED4F3869598
S1130B4077956795B795F7959F5FC9F7880F911DBE
S1130B509695879597F90895E1E0660F771F881FAA
S1130B60BB1F621773078407BA0720F0621B730B5D
S1130B70840BBA0BEE1F88F7E0950895E89409C03A
S1130B8097FB3EF490958095709561957F4F8F4FBC
S1130B909F4F9923A9F0F92F96E9BB279395F695D2
S1130BA0879577956795B795F111F8CFFAF4BB0F50
S1130BB011F460FF1BC06F5F7F4F8F4F9F4F16C0B4
S1130BC0882311F096E911C0772321F09EE8872F3E
S1130BD0762F05C0662371F096E8862F70E060E0FA
S1130BE02AF09A95660F771F881FDAF7880F969573
S1130BF0879597F9089597F99F6780E870E060E01A
S1130C0008959FEF80EC089500240A9416161706A1
S1130C1018060906089500240A94121613061406E9
S1130C2005060895092E0394000C11F4882352F04C
S1130C30BB0F40F4BF2B11F460FF04C06F5F7F4F04
S1130C408F4F9F4F089557FD9058440F551F59F0EB
S1130C505F3F71F04795880F97FB991F61F09F3FA5
S1130C6079F087950895121613061406551FF2CFCE
S1130C704695F1DF08C0161617061806991FF1CF1E
S1130C8086957105610508940895E894BB27662745
S1130C907727CB0197F908950E945F060C941206FA
S1130CA00E94040638F00E940B0620F0952311F0F0
S1130CB00C94FB050C94010611240C9446060E9426
S1130CC0230670F3959FC1F3950F50E0551F629F63
S1130CD0F001729FBB27F00DB11D639FAA27F00D91
S1130CE0B11DAA1F649F6627B00DA11D661F829FB8
S1130CF02227B00DA11D621F739FB00DA11D621F9D
S1130D00839FA00D611D221F749F3327A00D611DB9
S1130D10231F849F600D211D822F762F6A2F11249B
S1130D209F5750409AF0F1F088234AF0EE0FFF1FCE
S1130D30BB1F661F771F881F91505040A9F79E3F25
S1130D40510580F00C94FB050C9446065F3FE4F3D8
S1130D50983ED4F3869577956795B795F795E7957B
S1130D609F5FC1F7FE2B880F911D9695879597F984
S1130D70089520FD09C0FC0123FD05C022FF02C027
S1130D807383628351834083089544FD17C046FDF5
S1130D9017C0AB01BC01DA01FB01AA0FBB1FEE1F98
S1130DA0FF1F1094D1F74A0F5B1F6E1F7F1FCB01EB
S1130DB0BA01660F771F881F991F09C033E001C06D
S1130DC034E0660F771F881F991F3150D1F7620FE7
S1130DD0711D811D911D08950F931F93CF93DF9370
S1130DE08C01C8010E94BC0FEC0197FD08C00E9451
S1130DF07B0F892BB1F7B801CE010E947110CE018F
S1130E00DF91CF911F910F910895A0E0B0E0EBE046
S1130E10F7E00C94500E7C018B016A01D22F0E94E2
S1130E20BC0F9C0133272B32310521F02D323105C3
S1130E3059F4D0680150110911F480E06BC0C70166
S1130E400E94BC0F97FDF9CFCD2FCD7F2D2F20739E
S1130E5019F5803309F5580181E0A81AB10809F49D
S1130E6045C0C7010E94BC0F97FD40C09C012F7D67
S1130E7033272835310551F4C26402501109B1F108
S1130E80C7010E94BC0F97FF07C030C0D6FF02C045
S1130E90C26001C0C2618501812C912C540120EDF6
S1130EA0280F283080F0C4FF04C0B7010E947110DD
S1130EB01AC02A3040F0C6FFF8CF2F7D3FEE320F24
S1130EC0363098F727504C2FC501B4010E94C5064F
S1130ED04B015C01C2600150110959F0C7010E9425
S1130EE0BC0F97FFDCCFC1FD04C0A7CF812C912C90
S1130EF05401C7FF08C0B094A09490948094811CBE
S1130F00911CA11CB11C2C2FB501A401C6010E9487
S1130F10B90681E0CDB7DEB7ECE00C946C0EA0E22C
S1130F20B0E0E5E9F7E00C944C0E5C014B017A016A
S1130F308E010F5F1F4F680180E2F80111928A95BC
S1130F40E9F7F501538040E050E0612C90E0712C0A
S1130F50A1E0B0E0F90153FC859153FE81918F012A
S1130F60482E9F01811103C080E090E096C08E3529
S1130F7019F44115510551F1672D70E06417750797
S1130F803CF48D3561F18D3219F4992311F103C0CC
S1130F90992309F46DC0842D869586958695F6016E
S1130FA0E80FF11D842D87708D0102C0000F111F01
S1130FB08A95E2F7C8019081892B8083641459F0E3
S1130FC0461410F44394E7CF4A94E5CF77247394FE
S1130FD003C091E001C090E04F5F5F4FBBCF992306
S1130FE019F08E8180628E83711003C0772473940C
S1130FF019C0F6019E012F5D3F4F8081809581933A
S11310002E173F07D1F7F2CFE114F10431F0F701C5
S11310108083B7016F5F7F4F7B0171E0871A91086E
S1131020712CF9F0C5010E94BC0F97FD18C0FC019A
S1131030FF2723E0F595E7952A95E1F7EC0DFD1DD3
S1131040208130E0AC014770552702C035952795C3
S11310504A95E2F720FDD8CFB5010E9471107110B6
S113106083CFE114F10411F0F7011082C80115C017
S1131070682F669566956695F601E60FF11D682F53
S113108067708D0102C0000F111F6A95E2F7B80165
S11310907081672B6083682E9FCFA096E0E10C944B
S11310A0680E2F923F924F925F926F927F929F921F
S11310B0AF92BF92CF92DF92EF92FF920F931F9362
S11310C0CF93DF936C018B011A010E94BC0FEC01DA
S11310D099278B32910529F08D9781F430E8932E6E
S11310E001C0912C0150110911F480E00CC1C6011A
S11310F00E94BC0FEC0197FF02C0F7CF912CCE01E8
S11311000E94840F8936910531F08E36910599F548
S1131110C1EDD1E002C0C4EDD1E02196FE013197CA
S1131120B490BB20C9F00150110991F0C6010E948E
S1131130BC0F7C0197FD0CC00E94840F9927EB2DF6
S1131140F0E08E179F0749F3B601C7010E947110A2
S1131150C75DD14051F603C0C45DD14029F080E0A1
S113116090E0A0E8BFE704C080E090E0A0ECBFE717
S1131170BC01CD01B8C0412C512C3201E12CF12C21
S11311802C2F20532A3010F5E92DE260BE2E892D34
S1131190887092FE06C0811120C0FFEFEF1AFF0A8B
S11311A01CC0882319F081E0E81AF10840E2C30169
S11311B0B2010E94C5062B013C016839794989496D
S11311C0994158F0F92DF660BF2E07C02E3F89F4DF
S11311D093FC0FC0292D2860B22E0150110941F053
S11311E0C6010E94BC0FEC019B2C97FFC9CF01C024
S11311F09B2C91FE7ACFCE018F7D99278534910562
S113120009F042C0580181E0A81AB10809F46DCF71
S1131210C6010E94BC0FEC0197FD67CF99278B3262
S1131220910529F08D9769F4E92DE0619E2E58010E
S1131230F2E0AF1AB10809F458CFC6010E94BC0FFE
S1131240EC01CE01C0970A9708F04FCF8501A12C7D
S1131250B12CB501BB0C880B990B2C2F205340E209
S11312600E94C5065B010150110939F0C6010E94B4
S1131270BC0FEC01C0970A9760F394FE03C0B194CD
S1131280A194B108EA0CFB1C012B31F0D7FD04C07A
S1131290B601CE010E947110C301B2010E94BE05C5
S11312A0F7FE06C0F194E194F108C0EFD1E002C06A
S11312B0C8E0D2E06E0128E1C21AD10800E210E0D1
S11312C0E016F10650F0FE012591359145915491B7
S11312D00E944C06E01AF10AF3CF2497169507955D
S11312E0CC16DD0669F797FE05C0DC01CB01B058CA
S11312F0BC01CD012114310429F0F1016083718313
S11313008283938381E0DF91CF911F910F91FF90AE
S1131310EF90DF90CF90BF90AF909F907F906F90B1
S11313205F904F903F902F900895A0E0B0E0EBE9DC
S1131330F9E00C944E0E5C01EB014A01FC011782AA
S11313401682612CF5010381FE0103FD859103FFE3
S11313508191182FEF01882309F40FC190E00E94B6
S11313607B0F892B21F0C5010E94EC06EBCF1532CF
S113137041F4FE0103FD159103FF1191EF011532B4
S113138081F4C5010E94BC0F97FDF5C0412F50E0C8
S11313909C01332724173507A9F2B5010E94711067
S11313A0ECC01A3241F403FD159103FF1191EF01D2
S11313B07724739401C0712CE12CF12C20ED210FC2
S11313C02A3088F4F72DF2607F2EB70180E090E098
S11313D040E20E94C5067B01FE0103FD159103FF57
S11313E01191EF01EBCF71FE04C0E114F10421F47B
S11313F0C4C0EE24EA94FE2C183619F01C3661F0B1
S113140014C0FE0103FD159103FF1191EF0118367D
S113141061F4872D8860782E972D9460792EFE01D3
S113142003FD159103FF1191EF01112309F4A5C0E8
S1131430612F70E08FEB91E00E948C0F892B09F4EF
S11314409CC070FC07C0F401C080D180C401029626
S11314504C0102C0C12CD12C1E3651F4F501468139
S1131460578160E070E0272DC6010E94B9066ACF5B
S11314701336B9F471FC03C0EE24E394F12CC501D6
S11314800E94BC0F97FD77C0C114D10429F0F60166
S11314908083C60101966C0191E0E91AF10879F79D
S11314A066C01B3559F49E01A601B701C5010E940F
S11314B08F07EC01892B09F05AC054C0C5010E9462
S11314C0EC0697FD58C01F36E1F140F41436A9F13B
S11314D01936D1F1183509F03EC02BC01337A9F0E5
S11314E018F4103731F137C0153739F1183709F1CD
S11314F032C0C114D10429F0F6010083C60101965B
S11315006C0191E0E91AF10871F0C5010E94BC0F69
S11315108C0197FD08C00E947B0F892B51F3B50104
S1131520C8010E947110C114D10409F1F60110829E
S11315301EC0F72DF0647F2E07C0872D8062782EA1
S113154003C0972D9061792E272DA601B701C501FF
S11315500E94050705C0A601B701C5010E945108F4
S1131560811105C0F5018381807329F406C070FCE4
S1131570E9CE6394E7CE662019F0862D90E002C090
S11315808FEF9FEFCDB7DEB7EEE00C946A0EA0E1CB
S1131590B0E0EDECFAE00C944A0E7C011B016A0108
S11315A0FC0117821682838181FF44C39E012F5F51
S11315B03F4F3901F7019381F10193FD859193FF29
S11315C081911F01882309F431C3853239F493FDD5
S11315D0859193FF81911F01853239F4B70190E021
S11315E00E94FA0F56016501E5CF10E0512C912CB1
S11315F0FFE1F915D8F08B3279F038F4803279F0C4
S11316008332A1F4F92DF0612EC08D3261F0803364
S113161069F4292D21602DC0392D3260932E892D36
S11316208460982E2AC0E92DE86015C097FC2DC06F
S113163020ED280F2A3088F496FE06C03AE0139F66
S1131640200D1124122F19C08AE0589E200D112458
S1131650522EE92DE0629E2E10C08E3231F496FC9B
S1131660E5C2F92DF0649F2E08C08C3621F4292D93
S11316702068922E02C0883641F4F10193FD8591D1
S113168093FF81911F018111B3CF9BEB980F93308E
S113169020F4992D9061805E07C09BE9980F9330E8
S11316A008F066C1992D9F7E96FF16E09F73992ED0
S11316B0853619F49064992E08C0863621F4392FA2
S11316C03068932E02C01111115097FE07C01C33CD
S11316D050F444244394410E27E00BC0183038F0F2
S11316E027E017E005C027E09CE3492E02C0212F24
S11316F0412C560184E0A80EB11CF6016081718171
S113170082819381042DA3010E94A30E6C01F981AF
S1131710FC87F0FF02C0F3FF06C091FC06C092FEF6
S113172006C000E205C00DE203C00BE201C000E008
S11317308C858C7019F001115AC29BC297FE10C09F
S11317404C0CFC85F4FF04C08A81813309F44A946B
S1131750141474F528E0241578F588E0482E2CC07C
S113176096FC2AC0812F90E08C159D059CF03CEFDF
S1131770C3163FEFD30674F0892D8068982E0AC0F3
S1131780E2E0F0E0EC0FFD1FE10FF11D80818033FA
S113179019F411501111F4CF97FE0EC04424439450
S11317A0410E812F90E0C816D9062CF41C1904C0F0
S11317B04424439401C010E097FE06C01C141D0489
S11317C034F4C601019605C085E090E002C081E0D2
S11317D090E001110196112331F0212F30E02F5FA9
S11317E03F4F820F931F252D30E08217930714F487
S11317F0581A01C0512C892D897049F4552039F0AB
S1131800B70180E290E00E94FA0F5A94F7CF0023C8
S113181029F0B701802F90E00E94FA0F93FC09C0D1
S1131820552039F0B70180E390E00E94FA0F5A94F2
S1131830F7CF97FE4CC04601D7FE02C0812C912CF5
S1131840C60188199909F301E80FF91FFE87ED878E
S1131850960124193109388B2F87012F10E0119537
S1131860019511093FEF8316930629F4B7018EE21F
S113187090E00E94FA0FC814D9044CF08F8598891F
S11318808815990524F4ED85FE85818101C080E3E6
S1131890F1E08F1A91082D853E852F5F3F4F3E87DB
S11318A02D87801691062CF0B70190E00E94FA0F64
S11318B0D9CFC814D90441F49A81963320F49533CE
S11318C019F43C8534FF81E3B70190E04EC08A816E
S11318D0813319F09C859F7E9C87B70190E00E941C
S11318E0FA0F111105C094FC18C085E690E017C0EA
S11318F0B7018EE290E00E94FA0F1E5F82E001E0E1
S1131900080FF301E80FF11D8081B70190E00E94F8
S1131910FA0F802F0113F3CFE6CF85E490E0B701EF
S11319200E94FA0FD7FC06C0C114D10441F4EC851F
S1131930E4FF05C0D194C194D1088DE201C08BE2CB
S1131940B70190E00E94FA0F80E32AE0C216D104A6
S11319502CF08F5FFAE0CF1AD108F7CFB70190E0EF
S11319600E94FA0FB701C601C0960E94FA0F54C133
S1131970833631F0833779F0833509F056C020C0BF
S1131980560132E0A30EB11CF6018081898301E087
S113199010E0630112C05601F2E0AF0EB11CF60173
S11319A0C080D18096FE03C0612F70E002C06FEF4B
S11319B07FEFC6010E94A90F8C01F92DFF7714C097
S11319C0560122E0A20EB11CF601C080D18096FE21
S11319D003C0612F70E002C06FEF7FEFC6010E9469
S11319E0970F8C01F92DF0689F2EF3FD1AC0852DF9
S11319F090E008171907A8F4B70180E290E00E946C
S1131A00FA0F5A94F4CFF60197FC859197FE8191D1
S1131A106F01B70190E00E94FA0F51105A940150DF
S1131A2011090115110579F7F7C0843611F08936CB
S1131A3061F5560197FE09C024E0A20EB11CF6011F
S1131A4060817181828193810AC0F2E0AF0EB11C82
S1131A50F60160817181072E000C880B990BF92D1A
S1131A60FF769F2E97FF09C090958095709561959C
S1131A707F4F8F4F9F4FF0689F2E2AE030E0A301E5
S1131A800E948A10C82EC6183FC0092D853721F43C
S1131A900F7E2AE030E01DC0097F8F3691F018F4E4
S1131AA0883559F0C3C0803719F0883711F0BEC0AB
S1131AB0006104FF09C0046007C094FE08C006600A
S1131AC006C028E030E005C020E130E002C020E19B
S1131AD032E0560107FF09C084E0A80EB11CF601EC
S1131AE0608171818281938108C0F2E0AF0EB11CE4
S1131AF0F6016081718180E090E0A3010E948A1068
S1131B00C82EC6180F77902E96FE0BC0092D0E7F97
S1131B10C11650F494FE0AC092FC08C0092D0E7E32
S1131B2005C0DC2C092D03C0DC2C01C0D12E04FF20
S1131B300DC0FE01EC0DF11D8081803311F4097E8E
S1131B4009C002FF06C0D394D39404C0802F8678C2
S1131B5009F0D39403FD11C000FF06C01C2DD51459
S1131B6080F4150D1D190DC0D51458F4B70180E289
S1131B7090E00E94FA0FD394F7CFD51410F45D18B7
S1131B8001C0512C04FF10C0B70180E390E00E9413
S1131B90FA0F02FF17C001FD03C088E790E002C0FE
S1131BA088E590E0B7010CC0802F867859F001FFDA
S1131BB002C08BE201C080E207FD8DE2B70190E034
S1131BC00E94FA0FC11638F4B70180E390E00E9436
S1131BD0FA0F1150F7CFCA94F301EC0DF11D808177
S1131BE0B70190E00E94FA0FC110F5CF15C0F4E0E0
S1131BF0F51560F584E0581A93FE1FC0011127C043
S1131C002C8523FF2AC002E810E0392D3071932E71
S1131C10F8018491811124C0552009F4E4CCB70162
S1131C2080E290E00E94FA0F5A94F6CFF701868181
S1131C30978126C08FEF9FEF23C0B70180E290E029
S1131C400E94FA0F5A945110F8CFD8CF512CB701F3
S1131C50802F90E00E94FA0FD3CF06E810E0D5CF92
S1131C6091108052B70190E00E94FA0F0F5F1F4F4E
S1131C70CFCF23E0251510F483E0BDCF512CC0CF86
S1131C806096E2E10C94660EEE0FFF1F0590F4914E
S1131C90E02D09942F923F924F925F926F927F9220
S1131CA08F929F92AF92BF92CF92DF92EF92FF9268
S1131CB00F931F93CF93DF93CDB7DEB7CA1BDB0B14
S1131CC00FB6F894DEBF0FBECDBF09942A883988B9
S1131CD048885F846E847D848C849B84AA84B984C0
S1131CE0C884DF80EE80FD800C811B81AA81B981CC
S1131CF0CE0FD11D0FB6F894DEBF0FBECDBFED01E0
S1131D000895662777270C94E810FC018827992703
S1131D10E89421912032E9F3293010F02E30C8F3F1
S1131D202B3241F02D3239F4689404C00E94B40F70
S1131D30820F911D219120532A30C0F31EF49095F7
S1131D4081959F4F0895283008F027E03327DA0162
S1131D50990F311D87FD916000966105710539F475
S1131D6032602E5F3D9330E32A95E1F708959F3F5B
S1131D7030F080387105610509F03C5F3C5F3D93AC
S1131D80913008F08068911DDF93CF931F930F93D8
S1131D90FF92EF92192F987F9695E92F9695969535
S1131DA0E90FFF27EC51FF4F99273327EE24FF2437
S1131DB0A701E70105900894079428F4360FE71E5D
S1131DC0F81E491F511D660F771F881F991F06941F
S1131DD0A1F70590079428F4E70EF81E491F561F33
S1131DE0C11D770F881F991F661F0694A1F70590E0
S1131DF0079428F4F80E491F561FC71FD11D880FDA
S1131E00991F661F771F0694A1F70590079420F485
S1131E10490F561FC71FD81F990F661F771F881FAA
S1131E200694A9F784911095177041F0D695C7953B
S1131E3057954795F794E7941A95C1F7EAE8F0E0C7
S1131E4068941590159135916591959105907FE26F
S1131E507395E118F10A430B560BC90BD009C0F76F
S1131E60E10CF11E431F561FC91FD01D7EF47033B1
S1131E7011F48A95E6CFE894015030F0080F0AF483
S1131E800027021708F4202F2395022F7A3328F015
S1131E9079E37D932A95E9F710C07D932A9589F615
S1131EA0069497956795379517951794E118F10A55
S1131EB0430B560BC90BD00998F023957E9173956B
S1131EC07A3308F070E37C932013B8F77E91706145
S1131ED07D9330F0839571E37D9370E32A95E1F768
S1131EE01124EF90FF900F911F91CF91DF919927CB
S1131EF087FD9095089591110C943612803219F053
S1131F0089508550C8F708959111089581548A51D4
S1131F1008F4805E855A0895FC010590061621F0A8
S1131F200020D9F7C00108953197CF010895FC012D
S1131F300590615070400110D8F7809590958E0FF0
S1131F409F1F0895FB01DC0101900D920020E1F731
S1131F500895FC016150704001900110D8F78095FC
S1131F6090958E0F9F1F08957AE0979F902D879FDD
S1131F70802D910D11240895CF93DF93EC012B81D3
S1131F8020FF33C026FF0AC02F7B2B838E819F81C5
S1131F9001969F838E838A8190E029C022FF0FC01F
S1131FA0E881F9818081082E000C990B009719F4BF
S1131FB020622B831AC03196F983E8830EC0EA8528
S1131FC0FB85099597FF09C02B81019611F080E2EA
S1131FD001C080E1822B8B8308C02E813F812F5F5B
S1131FE03F4F3F832E83992702C08FEF9FEFDF91EE
S1131FF0CF9108950F931F93CF93DF93FB01238118
S113200021FD03C08FEF9FEF2CC022FF16C0468135
S11320105781248135814217530744F4A081B1814B
S11320209D012F5F3F4F318320838C93268137811D
S11320302F5F3F4F3783268314C08B01EC01FB01D4
S11320400084F185E02D0995892BE1F6D8011696D7
S11320508D919C911797019617969C938E93169742
S1132060CE01DF91CF911F910F910895AEE0B0E0C2
S1132070ECE3F0E10C94580E0D891E8986E08C8304
S11320801A8309838FEF9FE79E838D83AE01475E9A
S11320905F4F6F89788DCE0101960E94C70AEF8148
S11320A0F885E00FF11F10822E96E4E00C94740E74
S11320B0AEE0B0E0EEE5F0E10C945A0E85E08C83DE
S11320C08B899C899A838983AE01495E5F4F6D89B0
S11320D07E89CE0101960E9495092E96E2E00C9429
S11320E0760EFB01238120FF12C026FD10C08F3F16
S11320F03FEF930761F082832F7D20642383268141
S113210037812150310937832683992708958FEF2A
S11321109FEF0895FA01AA27283051F1203181F167
S1132120E8946F936E7F6E5F7F4F8F4F9F4FAF4FDB
S1132130B1E03ED0B4E03CD0670F781F891F9A1FEE
S1132140A11D680F791F8A1F911DA11D6A0F711DA2
S1132150811D911DA11D20D009F468943F912AE0AE
S1132160269F11243019305D3193DEF6CF01089596
S1132170462F4770405D4193B3E00FD0C9F7F6CFC7
S1132180462F4F70405D4A3318F0495D31FD40528F
S1132190419302D0A9F7EACFB4E0A6959795879525
S11321A077956795BA95C9F7009761057105089504
S11321B09B01AC010A2E06945795479537952795B0
S11321C0BA95C9F7620F731F841F951FA01D089548
S11321D0A0E0B0E0EEEEF0E10C94500EEC016B01E7
S11321E06115710519F0FB01918380837E01FFEF76
S11321F0EF1AFF0A0881802F90E00E947B0F892B41
S113220011F0E701F3CF0D3239F47E0182E0E80EDC
S1132210F11C098111E008C00B3229F47E0192E01F
S1132220E90EF11C098110E0E701219743E050E039
S11322306CE871E0CE010E943912892BC1F4239617
S113224045E050E067E871E0CE010E943912892B25
S113225009F42596C114D10419F0F601D183C08381
S11322601111F6C060E070E080E89FE7FAC043E037
S113227050E064E871E0CE010E943912892B59F4D0
S1132280C114D10409F4E9C0F2E0EF0EF11CF60127
S1132290F182E082E2C020E030E0A901C0E0D0E0B9
S11322A0F70180EDA82EA00E89E08A1530F1912F58
S11322B09260B92E812F887012FF04C0811124C04E
S11322C0219622C081112197A5E0B0E00E94AC12B2
S11322D0DC01CB01880F991FAA1FBB1F9C01AD0114
S11322E02A0D311D411D511D283989E93807480738
S11322F089E1580748F0166006C09EEFA9120AC08B
S113230013FD40C01860B12E8FEFE81AF80A00815F
S11323101B2DC6CF802F8F7D8534A1F580818D3212
S113232011F4106106C08B3221F0319661E070E047
S113233004C08181329662E070E080538A3018F0E4
S1132340E61BF70B1FC060E070E060389CE0790783
S11323505CF4DB01AA0FBB1FAA0FBB1F6A0F7B1F14
S1132360660F771F680F711D3196DF0111978C91ED
S113237080538A3050F314FF03C07195619571093D
S1132380C60FD71F11FF08C0C114D10429F0CF0113
S11323900197F60191838083CA01B9010E94BE05A9
S11323A0212F2370233019F04B015C0106C04B012F
S11323B05C01B7FAB094B7F8B09420E030E0A9011A
S11323C0C501B4010E945112882309F43EC0D7FF0D
S11323D006C0D195C195D10903EA11E002C00BEB07
S11323E011E06801F8E1CF1AD10890E2E92EF12C4E
S11323F0CE15DF0574F0F80125913591459154917E
S1132400C501B4010E944C064B015C01CE19DF09E1
S1132410EFCF04501109F594E7940C151D0541F70D
S11324208A2D880F8B2D881F8F3F49F020E030E0E4
S1132430A901C501B4010E945112811106C082E2B2
S113244090E09093BF028093BE02C501B40109C01D
S113245060E070E080E89FEF04C060E070E080EC32
S11324609FE7CDB7DEB7ECE00C946C0E9927882774
S11324700895FB01DC014150504088F08D91813476
S11324801CF08B350CF4805E659161341CF06B3567
S11324900CF4605E861B611171F3990B0895881B1F
S11324A0FCCF0E94561208F481E00895990F0008A9
S11324B0550FAA0BE0E8FEEF16161706E807F90712
S11324C0C0F012161306E407F50798F0621B730BAD
S11324D0840B950B39F40A2661F0232B242B252B2E
S11324E021F408950A2609F4A140A6958FEF811DD1
S11324F0811D0895DC01CB01FC01F999FECF06C0D2
S1132500F2BDE1BDF89A319600B40D9241505040AD
S1132510B8F70895DC01A40FB51F4150504048F0AE
S1132520CB01840F951F2E910E949B124150504065
S1132530D0F70895262FF999FECF92BD81BDF89A60
S1132540019700B4021639F01FBA20BD0FB6F894F3
S1132550FA9AF99A0FBE08950E94B712A59F900D9A
S1132560B49F900DA49F800D911D11240895A29FE6
S1132570B001B39FC001A39F700D811D1124911D53
S1132580B29F700D811D1124911D0895F894FFCF01
S11325900000000000000000000000000000000037
S11325A00000000000000000000000000000000027
S11325B00000000000000000000000000000000017
S11325C000000064000A000000B041000040400127
S11325D000313A25643A25663A25660D0A00303AF8
S11325E025660D0A00303A25640D0A00303A257339
S10D25F00D0A0025643A257300006B
S9030000FC
